{
  "contractName": "Lottery",
  "abi": [
    {
      "inputs": [
        {
          "internalType": "contract MyToken",
          "name": "_token",
          "type": "address"
        }
      ],
      "stateMutability": "nonpayable",
      "type": "constructor"
    },
    {
      "inputs": [],
      "name": "costTicket",
      "outputs": [
        {
          "internalType": "uint256",
          "name": "",
          "type": "uint256"
        }
      ],
      "stateMutability": "view",
      "type": "function",
      "constant": true
    },
    {
      "inputs": [
        {
          "internalType": "uint256",
          "name": "",
          "type": "uint256"
        }
      ],
      "name": "lotteryHistory",
      "outputs": [
        {
          "internalType": "address payable",
          "name": "",
          "type": "address"
        }
      ],
      "stateMutability": "view",
      "type": "function",
      "constant": true
    },
    {
      "inputs": [],
      "name": "lotteryId",
      "outputs": [
        {
          "internalType": "uint256",
          "name": "",
          "type": "uint256"
        }
      ],
      "stateMutability": "view",
      "type": "function",
      "constant": true
    },
    {
      "inputs": [],
      "name": "owner",
      "outputs": [
        {
          "internalType": "address",
          "name": "",
          "type": "address"
        }
      ],
      "stateMutability": "view",
      "type": "function",
      "constant": true
    },
    {
      "inputs": [
        {
          "internalType": "uint256",
          "name": "",
          "type": "uint256"
        }
      ],
      "name": "players",
      "outputs": [
        {
          "internalType": "address payable",
          "name": "",
          "type": "address"
        }
      ],
      "stateMutability": "view",
      "type": "function",
      "constant": true
    },
    {
      "inputs": [],
      "name": "pot",
      "outputs": [
        {
          "internalType": "uint256",
          "name": "",
          "type": "uint256"
        }
      ],
      "stateMutability": "view",
      "type": "function",
      "constant": true
    },
    {
      "inputs": [],
      "name": "randomResult",
      "outputs": [
        {
          "internalType": "uint256",
          "name": "",
          "type": "uint256"
        }
      ],
      "stateMutability": "view",
      "type": "function",
      "constant": true
    },
    {
      "inputs": [
        {
          "internalType": "bytes32",
          "name": "requestId",
          "type": "bytes32"
        },
        {
          "internalType": "uint256",
          "name": "randomness",
          "type": "uint256"
        }
      ],
      "name": "rawFulfillRandomness",
      "outputs": [],
      "stateMutability": "nonpayable",
      "type": "function"
    },
    {
      "inputs": [],
      "name": "token",
      "outputs": [
        {
          "internalType": "contract MyToken",
          "name": "",
          "type": "address"
        }
      ],
      "stateMutability": "view",
      "type": "function",
      "constant": true
    },
    {
      "inputs": [],
      "name": "getRandomNumber",
      "outputs": [
        {
          "internalType": "bytes32",
          "name": "requestId",
          "type": "bytes32"
        }
      ],
      "stateMutability": "nonpayable",
      "type": "function"
    },
    {
      "inputs": [
        {
          "internalType": "uint256",
          "name": "lottery",
          "type": "uint256"
        }
      ],
      "name": "getWinnerByLottery",
      "outputs": [
        {
          "internalType": "address payable",
          "name": "",
          "type": "address"
        }
      ],
      "stateMutability": "view",
      "type": "function",
      "constant": true
    },
    {
      "inputs": [],
      "name": "getBalance",
      "outputs": [
        {
          "internalType": "uint256",
          "name": "",
          "type": "uint256"
        }
      ],
      "stateMutability": "view",
      "type": "function",
      "constant": true
    },
    {
      "inputs": [],
      "name": "getPlayers",
      "outputs": [
        {
          "internalType": "address payable[]",
          "name": "",
          "type": "address[]"
        }
      ],
      "stateMutability": "view",
      "type": "function",
      "constant": true
    },
    {
      "inputs": [],
      "name": "enter",
      "outputs": [],
      "stateMutability": "payable",
      "type": "function",
      "payable": true
    },
    {
      "inputs": [],
      "name": "pickWinner",
      "outputs": [],
      "stateMutability": "nonpayable",
      "type": "function"
    },
    {
      "inputs": [],
      "name": "payWinner",
      "outputs": [],
      "stateMutability": "nonpayable",
      "type": "function"
    },
    {
      "inputs": [],
      "name": "getPot",
      "outputs": [
        {
          "internalType": "uint256",
          "name": "",
          "type": "uint256"
        }
      ],
      "stateMutability": "nonpayable",
      "type": "function"
    }
  ],
  "bytecode": "0x60c06040526000600655674563918244f40000600a553480156200002257600080fd5b5060405162001b7538038062001b75833981810160405281019062000048919062000224565b73b3dccb4cf7a26f6cf6b120cf5a73875b7bbc655b7301be23585060835e02b77ef475b0cc51aa1e07098173ffffffffffffffffffffffffffffffffffffffff1660a08173ffffffffffffffffffffffffffffffffffffffff16815250508073ffffffffffffffffffffffffffffffffffffffff1660808173ffffffffffffffffffffffffffffffffffffffff168152505050507f2ed0feb3e7fd2022120aa84fab1945545a9f2ffc9076fd6156fa96eaff4c131160001b60078190555067016345785d8a000060088190555033600160006101000a81548173ffffffffffffffffffffffffffffffffffffffff021916908373ffffffffffffffffffffffffffffffffffffffff160217905550600160038190555080600560006101000a81548173ffffffffffffffffffffffffffffffffffffffff021916908373ffffffffffffffffffffffffffffffffffffffff1602179055505062000256565b600080fd5b600073ffffffffffffffffffffffffffffffffffffffff82169050919050565b6000620001d882620001ab565b9050919050565b6000620001ec82620001cb565b9050919050565b620001fe81620001df565b81146200020a57600080fd5b50565b6000815190506200021e81620001f3565b92915050565b6000602082840312156200023d576200023c620001a6565b5b60006200024d848285016200020d565b91505092915050565b60805160a0516118eb6200028a600039600081816105720152610cc701526000818161095a0152610c8b01526118eb6000f3fe6080604052600436106100fe5760003560e01c80638da5cb5b11610095578063dbdff2c111610064578063dbdff2c114610301578063e580f47b1461032c578063e97dcb6214610357578063f71d96cb14610361578063fc0c546a1461039e576100fe565b80638da5cb5b1461026b57806394985ddd14610296578063a136e508146102bf578063be71248a146102ea576100fe565b80634ba2363a116100d15780634ba2363a146101c15780635d495aea146101ec5780636d6fe230146102035780638b5b9ccc14610240576100fe565b806312065fe014610103578063281d098d1461012e578063403c9fa81461016b57806342619f6614610196575b600080fd5b34801561010f57600080fd5b506101186103c9565b6040516101259190610f06565b60405180910390f35b34801561013a57600080fd5b5061015560048036038101906101509190610f52565b6103d1565b6040516101629190610fc0565b60405180910390f35b34801561017757600080fd5b5061018061040e565b60405161018d9190610f06565b60405180910390f35b3480156101a257600080fd5b506101ab610418565b6040516101b89190610f06565b60405180910390f35b3480156101cd57600080fd5b506101d661041e565b6040516101e39190610f06565b60405180910390f35b3480156101f857600080fd5b50610201610424565b005b34801561020f57600080fd5b5061022a60048036038101906102259190610f52565b610489565b6040516102379190610fc0565b60405180910390f35b34801561024c57600080fd5b506102556104bc565b6040516102629190611099565b60405180910390f35b34801561027757600080fd5b5061028061054a565b60405161028d91906110dc565b60405180910390f35b3480156102a257600080fd5b506102bd60048036038101906102b8919061112d565b610570565b005b3480156102cb57600080fd5b506102d461060c565b6040516102e19190610f06565b60405180910390f35b3480156102f657600080fd5b506102ff610612565b005b34801561030d57600080fd5b50610316610953565b604051610323919061117c565b60405180910390f35b34801561033857600080fd5b50610341610a46565b60405161034e9190610f06565b60405180910390f35b61035f610a4c565b005b34801561036d57600080fd5b5061038860048036038101906103839190610f52565b610c17565b6040516103959190610fc0565b60405180910390f35b3480156103aa57600080fd5b506103b3610c56565b6040516103c091906111f6565b60405180910390f35b600047905090565b60006004600083815260200190815260200160002060009054906101000a900473ffffffffffffffffffffffffffffffffffffffff169050919050565b6000600654905090565b60095481565b60065481565b600160009054906101000a900473ffffffffffffffffffffffffffffffffffffffff1673ffffffffffffffffffffffffffffffffffffffff163373ffffffffffffffffffffffffffffffffffffffff161461047e57600080fd5b610486610953565b50565b60046020528060005260406000206000915054906101000a900473ffffffffffffffffffffffffffffffffffffffff1681565b6060600280548060200260200160405190810160405280929190818152602001828054801561054057602002820191906000526020600020905b8160009054906101000a900473ffffffffffffffffffffffffffffffffffffffff1673ffffffffffffffffffffffffffffffffffffffff16815260200190600101908083116104f6575b5050505050905090565b600160009054906101000a900473ffffffffffffffffffffffffffffffffffffffff1681565b7f000000000000000000000000000000000000000000000000000000000000000073ffffffffffffffffffffffffffffffffffffffff163373ffffffffffffffffffffffffffffffffffffffff16146105fe576040517f08c379a00000000000000000000000000000000000000000000000000000000081526004016105f59061126e565b60405180910390fd5b6106088282610c7c565b5050565b600a5481565b600060095411610657576040517f08c379a000000000000000000000000000000000000000000000000000000000815260040161064e90611300565b60405180910390fd5b600060028054905060095461066c919061134f565b9050600560009054906101000a900473ffffffffffffffffffffffffffffffffffffffff1673ffffffffffffffffffffffffffffffffffffffff16630c9fcec930600284815481106106c1576106c0611380565b5b9060005260206000200160009054906101000a900473ffffffffffffffffffffffffffffffffffffffff16670de0b6b3a764000060065461070291906113de565b6040518463ffffffff1660e01b815260040161072093929190611459565b600060405180830381600087803b15801561073a57600080fd5b505af115801561074e573d6000803e3d6000fd5b50505050600560009054906101000a900473ffffffffffffffffffffffffffffffffffffffff1673ffffffffffffffffffffffffffffffffffffffff1663a9059cbb600283815481106107a4576107a3611380565b5b9060005260206000200160009054906101000a900473ffffffffffffffffffffffffffffffffffffffff16670de0b6b3a76400006006546107e591906113de565b6040518363ffffffff1660e01b8152600401610802929190611490565b6020604051808303816000875af1158015610821573d6000803e3d6000fd5b505050506040513d601f19601f8201168201806040525081019061084591906114f1565b506002818154811061085a57610859611380565b5b9060005260206000200160009054906101000a900473ffffffffffffffffffffffffffffffffffffffff1660046000600354815260200190815260200160002060006101000a81548173ffffffffffffffffffffffffffffffffffffffff021916908373ffffffffffffffffffffffffffffffffffffffff160217905550600360008154809291906108eb9061151e565b9190505550600067ffffffffffffffff81111561090b5761090a611567565b5b6040519080825280602002602001820160405280156109395781602001602082028036833780820191505090505b506002908051906020019061094f929190610e46565b5050565b60006008547f000000000000000000000000000000000000000000000000000000000000000073ffffffffffffffffffffffffffffffffffffffff166370a08231306040518263ffffffff1660e01b81526004016109b191906110dc565b602060405180830381865afa1580156109ce573d6000803e3d6000fd5b505050506040513d601f19601f820116820180604052508101906109f291906115ab565b1015610a33576040517f08c379a0000000000000000000000000000000000000000000000000000000008152600401610a2a90611624565b60405180910390fd5b610a41600754600854610c87565b905090565b60035481565b600560009054906101000a900473ffffffffffffffffffffffffffffffffffffffff1673ffffffffffffffffffffffffffffffffffffffff16630c9fcec93330600a546040518463ffffffff1660e01b8152600401610aad93929190611644565b600060405180830381600087803b158015610ac757600080fd5b505af1158015610adb573d6000803e3d6000fd5b50505050600560009054906101000a900473ffffffffffffffffffffffffffffffffffffffff1673ffffffffffffffffffffffffffffffffffffffff166323b872dd3330600a546040518463ffffffff1660e01b8152600401610b4093929190611644565b6020604051808303816000875af1158015610b5f573d6000803e3d6000fd5b505050506040513d601f19601f82011682018060405250810190610b8391906114f1565b50670de0b6b3a7640000600a54610b9a919061167b565b60066000828254610bab91906116ac565b925050819055506002339080600181540180825580915050600190039060005260206000200160009091909190916101000a81548173ffffffffffffffffffffffffffffffffffffffff021916908373ffffffffffffffffffffffffffffffffffffffff160217905550565b60028181548110610c2757600080fd5b906000526020600020016000915054906101000a900473ffffffffffffffffffffffffffffffffffffffff1681565b600560009054906101000a900473ffffffffffffffffffffffffffffffffffffffff1681565b806009819055505050565b60007f000000000000000000000000000000000000000000000000000000000000000073ffffffffffffffffffffffffffffffffffffffff16634000aea07f000000000000000000000000000000000000000000000000000000000000000084866000604051602001610cfb929190611702565b6040516020818303038152906040526040518463ffffffff1660e01b8152600401610d28939291906117c4565b6020604051808303816000875af1158015610d47573d6000803e3d6000fd5b505050506040513d601f19601f82011682018060405250810190610d6b91906114f1565b506000610d8d8460003060008089815260200190815260200160002054610dd7565b9050600160008086815260200190815260200160002054610dae91906116ac565b60008086815260200190815260200160002081905550610dce8482610e13565b91505092915050565b600084848484604051602001610df09493929190611802565b6040516020818303038152906040528051906020012060001c9050949350505050565b60008282604051602001610e28929190611889565b60405160208183030381529060405280519060200120905092915050565b828054828255906000526020600020908101928215610ebf579160200282015b82811115610ebe5782518260006101000a81548173ffffffffffffffffffffffffffffffffffffffff021916908373ffffffffffffffffffffffffffffffffffffffff16021790555091602001919060010190610e66565b5b509050610ecc9190610ed0565b5090565b5b80821115610ee9576000816000905550600101610ed1565b5090565b6000819050919050565b610f0081610eed565b82525050565b6000602082019050610f1b6000830184610ef7565b92915050565b600080fd5b610f2f81610eed565b8114610f3a57600080fd5b50565b600081359050610f4c81610f26565b92915050565b600060208284031215610f6857610f67610f21565b5b6000610f7684828501610f3d565b91505092915050565b600073ffffffffffffffffffffffffffffffffffffffff82169050919050565b6000610faa82610f7f565b9050919050565b610fba81610f9f565b82525050565b6000602082019050610fd56000830184610fb1565b92915050565b600081519050919050565b600082825260208201905092915050565b6000819050602082019050919050565b61101081610f9f565b82525050565b60006110228383611007565b60208301905092915050565b6000602082019050919050565b600061104682610fdb565b6110508185610fe6565b935061105b83610ff7565b8060005b8381101561108c5781516110738882611016565b975061107e8361102e565b92505060018101905061105f565b5085935050505092915050565b600060208201905081810360008301526110b3818461103b565b905092915050565b60006110c682610f7f565b9050919050565b6110d6816110bb565b82525050565b60006020820190506110f160008301846110cd565b92915050565b6000819050919050565b61110a816110f7565b811461111557600080fd5b50565b60008135905061112781611101565b92915050565b6000806040838503121561114457611143610f21565b5b600061115285828601611118565b925050602061116385828601610f3d565b9150509250929050565b611176816110f7565b82525050565b6000602082019050611191600083018461116d565b92915050565b6000819050919050565b60006111bc6111b76111b284610f7f565b611197565b610f7f565b9050919050565b60006111ce826111a1565b9050919050565b60006111e0826111c3565b9050919050565b6111f0816111d5565b82525050565b600060208201905061120b60008301846111e7565b92915050565b600082825260208201905092915050565b7f4f6e6c7920565246436f6f7264696e61746f722063616e2066756c66696c6c00600082015250565b6000611258601f83611211565b915061126382611222565b602082019050919050565b600060208201905081810360008301526112878161124b565b9050919050565b7f4d7573742068617665206120736f75726365206f662072616e646f6d6e65737360008201527f206265666f72652063686f6f73696e672077696e6e6572000000000000000000602082015250565b60006112ea603783611211565b91506112f58261128e565b604082019050919050565b60006020820190508181036000830152611319816112dd565b9050919050565b7f4e487b7100000000000000000000000000000000000000000000000000000000600052601260045260246000fd5b600061135a82610eed565b915061136583610eed565b92508261137557611374611320565b5b828206905092915050565b7f4e487b7100000000000000000000000000000000000000000000000000000000600052603260045260246000fd5b7f4e487b7100000000000000000000000000000000000000000000000000000000600052601160045260246000fd5b60006113e982610eed565b91506113f483610eed565b9250817fffffffffffffffffffffffffffffffffffffffffffffffffffffffffffffffff048311821515161561142d5761142c6113af565b5b828202905092915050565b6000611443826111c3565b9050919050565b61145381611438565b82525050565b600060608201905061146e60008301866110cd565b61147b602083018561144a565b6114886040830184610ef7565b949350505050565b60006040820190506114a5600083018561144a565b6114b26020830184610ef7565b9392505050565b60008115159050919050565b6114ce816114b9565b81146114d957600080fd5b50565b6000815190506114eb816114c5565b92915050565b60006020828403121561150757611506610f21565b5b6000611515848285016114dc565b91505092915050565b600061152982610eed565b91507fffffffffffffffffffffffffffffffffffffffffffffffffffffffffffffffff82141561155c5761155b6113af565b5b600182019050919050565b7f4e487b7100000000000000000000000000000000000000000000000000000000600052604160045260246000fd5b6000815190506115a581610f26565b92915050565b6000602082840312156115c1576115c0610f21565b5b60006115cf84828501611596565b91505092915050565b7f4e6f7420656e6f756768204c494e4b20696e20636f6e74726163740000000000600082015250565b600061160e601b83611211565b9150611619826115d8565b602082019050919050565b6000602082019050818103600083015261163d81611601565b9050919050565b600060608201905061165960008301866110cd565b61166660208301856110cd565b6116736040830184610ef7565b949350505050565b600061168682610eed565b915061169183610eed565b9250826116a1576116a0611320565b5b828204905092915050565b60006116b782610eed565b91506116c283610eed565b9250827fffffffffffffffffffffffffffffffffffffffffffffffffffffffffffffffff038211156116f7576116f66113af565b5b828201905092915050565b6000604082019050611717600083018561116d565b6117246020830184610ef7565b9392505050565b600081519050919050565b600082825260208201905092915050565b60005b8381101561176557808201518184015260208101905061174a565b83811115611774576000848401525b50505050565b6000601f19601f8301169050919050565b60006117968261172b565b6117a08185611736565b93506117b0818560208601611747565b6117b98161177a565b840191505092915050565b60006060820190506117d960008301866110cd565b6117e66020830185610ef7565b81810360408301526117f8818461178b565b9050949350505050565b6000608082019050611817600083018761116d565b6118246020830186610ef7565b61183160408301856110cd565b61183e6060830184610ef7565b95945050505050565b6000819050919050565b61186261185d826110f7565b611847565b82525050565b6000819050919050565b61188361187e82610eed565b611868565b82525050565b60006118958285611851565b6020820191506118a58284611872565b602082019150819050939250505056fea26469706673582212201e8898782798f2d4ff0cf6f7d24289ae75c1043b2b5d1e2d40e4fa1798f1ffa564736f6c634300080b0033",
  "immutableReferences": {
    "73": [
      {
        "length": 32,
        "start": 2394
      },
      {
        "length": 32,
        "start": 3211
      }
    ],
    "75": [
      {
        "length": 32,
        "start": 1394
      },
      {
        "length": 32,
        "start": 3271
      }
    ]
  },
  "source": "// SPDX-License-Identifier: MIT\n\npragma solidity ^0.8.11;\n\nimport \"@chainlink/contracts/src/v0.8/VRFConsumerBase.sol\";\nimport \"./MyToken.sol\";\n\ncontract Lottery is VRFConsumerBase {\n    address public owner;\n    address payable[] public players;\n    uint public lotteryId;\n    mapping (uint => address payable) public lotteryHistory;\n    MyToken public token;\n    uint public pot = 0;\n\n    bytes32 internal keyHash; // identifies which Chainlink oracle to use\n    uint internal fee;        // fee to get random number\n    uint public randomResult;\n\n    uint256 public costTicket = 5 * (10**18);\n\n    // ERC20 Token\n    // LTRToken public token;\n\n    constructor(MyToken _token)\n        VRFConsumerBase(\n            0xb3dCcb4Cf7a26f6cf6B120Cf5A73875B7BBc655B, // VRF coordinator\n            0x01BE23585060835E02B77ef475b0Cc51aA1e0709  // LINK token address\n        ) {\n            keyHash = 0x2ed0feb3e7fd2022120aa84fab1945545a9f2ffc9076fd6156fa96eaff4c1311;\n            fee = 0.1 * 10 ** 18;    // 0.1 LINK\n\n            owner = msg.sender;\n            lotteryId = 1;\n            token = _token;\n        }\n\n    function getRandomNumber() public returns (bytes32 requestId) {\n        require(LINK.balanceOf(address(this)) >= fee, \"Not enough LINK in contract\");\n        return requestRandomness(keyHash, fee);\n    }\n\n    function fulfillRandomness(bytes32 requestId, uint randomness) internal override {\n        randomResult = randomness;\n    }\n\n    function getWinnerByLottery(uint lottery) public view returns (address payable) {\n        return lotteryHistory[lottery];\n    }\n\n    function getBalance() public view returns (uint) {\n        return address(this).balance;\n    }\n\n    function getPlayers() public view returns (address payable[] memory) {\n        return players;\n    }\n\n    function enter() public payable {\n        token.setApproval(msg.sender, address(this), costTicket);\n        token.transferFrom(msg.sender, address(this), costTicket);\n        //require(msg.value > .01 ether);\n        //pot\n        pot += costTicket/10**18;\n        // address of player entering lottery\n        players.push(payable(msg.sender));\n    }\n\n    function pickWinner() public onlyowner {\n        getRandomNumber();\n    }\n\n    function payWinner() public {\n        require(randomResult > 0, \"Must have a source of randomness before choosing winner\");\n        uint index = randomResult % players.length;\n        //players[index].transfer(address(this).balance);\n\n        token.setApproval(address(this), players[index], pot * (10**18));\n        token.transfer(players[index], pot * (10**18));\n\n        lotteryHistory[lotteryId] = players[index];\n        lotteryId++;\n        \n        // reset the state of the contract\n        players = new address payable[](0);\n    }\n\n    function getPot() public returns (uint) {\n        return pot;\n    }\n\n    modifier onlyowner() {\n      require(msg.sender == owner);\n      _;\n    }\n}\n\n",
  "sourcePath": "C:\\TaskFinal\\Lottery\\lottery\\contracts\\Lottery.sol",
  "compiler": {
    "name": "solc",
    "version": "0.8.11+commit.d7f03943.Emscripten.clang"
  },
  "schemaVersion": "3.4.8",
  "updatedAt": "2022-07-18T01:42:25.456Z",
  "networkType": "ethereum",
  "devdoc": {
    "kind": "dev",
    "methods": {},
    "version": 1
  },
  "userdoc": {
    "kind": "user",
    "methods": {},
    "version": 1
  }
}